:020000040800F2
:10000000284F002085020008B1690008815D0008C2
:10001000A96600080D2800086576000800000000A9
:10002000000000000000000000000000ED010008DA
:10003000D935000800000000310200088D6B00086F
:100040009F0200089F0200089F0200089F0200080C
:100050009F0200089F0200089F0200089F020008FC
:100060009F0200089F0200089F0200089F020008EC
:100070009F020008112900089F0200089F02000843
:100080009F0200089F0200089F0200089F020008CC
:100090009F0200089F0200089F0200089F020008BC
:1000A0009F0200089F0200089F0200089F020008AC
:1000B0009F020008056C00089F0200089F020008CC
:1000C0009F0200089F0200089F0200089F0200088C
:1000D0009F0200089F0200089F0200080D7600089A
:1000E0009F0200089F0200089F02000800F002F82B
:1000F00000F06DF80AA090E8000C82448344AAF155
:100100000107DA4501D100F062F8AFF2090EBAE852
:100110000F0013F0010F18BFFB1A43F0010318473B
:10012000D4AD0000F4AD00000A444FF0000C10F80C
:10013000013B13F0070408BF10F8014B1D1108BF65
:1001400010F8015B641E05D010F8016B641E01F805
:10015000016BF9D113F0080F1EBF10F8014BAD1C55
:100160000C1B09D16D1E58BF01F801CBFAD505E073
:1001700014F8016B01F8016B6D1EF9D59142D6D3CD
:10018000704700000023002400250026103A28BFF5
:1001900078C1FBD8520728BF30C148BF0B607047F9
:1001A00066290AF03F85002070471FB501F068F905
:1001B00004000020002109F0F5FA401C60600020D6
:1001C000002109F0D9FAE0601FBD10B510BD01F0A3
:1001D0001DFC1146FFF7E9FF08F002FA01F06EFE80
:1001E00003B4FFF7F2FF03BC01F0D4FE224B196801
:1001F0000868B0E8F00F80F30988BFF36F8F4FF005
:10020000000080F311884EF00D0E704700000000D2
:1002100006480068006880F3088862B661B6BFF3DC
:100220004F8FBFF36F8F00DF00BF00BF08ED00E00E
:10023000EFF30980BFF36F8F0F4B1A6820E9F00FBF
:10024000106008B54FF0BF0080F31188BFF34F8FE7
:10025000BFF36F8F09F032F84FF0000080F3118880
:10026000BDE8084019680868B0E8F00F80F3098815
:10027000BFF36F8F704700BF30000020EFF30580A1
:10028000704700000948804709480047FEE7FEE73D
:10029000FEE7FEE7FEE7FEE7FEE7FEE7FEE7FEE736
:1002A00004480549054A064B70470000036C0008E6
:1002B000ED000008004D0020284F0020254E0020B2
:1002C000284E00202DE9F0410388B1F800C04668AF
:1002D0004D685768634508D140884988884201BF06
:1002E00011888B425188884203D06FF00200BDE82C
:1002F000F08103FB00F41CB3B4F1004F23D2002CB7
:100300001EDD2D1F361F3F1F14F0010F07D055F8BB
:10031000041F56F8040F0AF09BF847F8040F641006
:100320000ED0696870680AF093F8786055F8081F75
:1003300056F8080F0AF08CF847F8080F641EF0D141
:100340000020BDE8F081296830680AF081F847F89C
:10035000040B641E05F1040506F10406F3D1EFE772
:1003600001804280436070472DE9F34F97B01798A2
:100370004068099048680A901798078846880020C6
:1003800000900F90B74206D108884988884204BF80
:100390003946874204D019B06FF00200BDE8F08FF3
:1003A0000A980C001CBF4FF07E55002236D0391B36
:1003B00016D0B1F1004F80F07B81002910DDA0F153
:1003C000040C11F0010F18BF4CF8042F4B1005D08E
:1003D000CCF804204CF8082F5B1EF9D100EB81000B
:1003E000611E40F8045B17D0B1F1004F80F06681C8
:1003F000002911DDA0F1040C11F0010F18BF4CF819
:10040000042F4B1006D000BFCCF804204CF8082F66
:100410005B1EF9D100EB8100641EC8D14FF00008CB
:100420001096002E1ABF70081190002000F01D8158
:10043000099808FB06FB0A9900EB8B0001EB8B0582
:10044000016882468E464FF0010C11F0FF4F36D105
:1004500008F101018F4284BF0B469F422FD906FB52
:1004600008F100EB81010C6806FB0CF205EB82023F
:1004700014F0FF4F1ED0464518BFA6EB080308D066
:10048000D1F800C0046841F8044B40F804CB5B1E6F
:10049000F6D1002E1CBF2846314608D01368D0F88C
:1004A00000C042F804CB40F8043B491EF6D10120BD
:1004B0000F900AE05B1C0CF1010CBB42D4D30F98E7
:1004C000012802D01EF0FF4F7DD0CDE912A509987A
:1004D000464550F82B0000901DD0A6EB0809AAF164
:1004E000040419F0010F05D0606800990AF024F89F
:1004F00044F8040F5FEA59090DD0606800990AF0CA
:100500001BF86060A06800990AF016F844F8080F1C
:10051000B9F10109F1D1C6B12C1F16F0010F05D0B8
:10052000606800990AF008F844F8040F119D65B15D
:10053000606800990AF000F86060A068009909F00E
:10054000FBFF44F8080F6D1EF2D1DDE9099004901D
:10055000002F18BF4FF0000A77D9A6EB08000790CC
:100560004FEA50001490C24504BF079809EB800978
:1005700061D0D9F80050DDE912010095159146458A
:100580002ED0A0F1040B0798A9F1040410F0010F7C
:1005900009D05BF8041F28460AF00CF929460AF036
:1005A00037FA44F8040F149DBDB100BFDBF8041006
:1005B00000980AF0FFF861680AF02AFA60605BF8B8
:1005C000081F009800E06DE00AF0F4F8A1680AF056
:1005D0001FFA44F8080F6D1EE8D1079809EB80094F
:1005E0006EB30498041F159816F0010FA0F1040BC8
:1005F00009D05BF8041F00980AF0DCF861680AF083
:1006000007FA44F8040F119DADB100BFDBF80410E8
:1006100000980AF0CFF861680AF0FAF960605BF8B8
:10062000081F00980AF0C6F8A1680AF0F1F944F82A
:10063000080F6D1EEAD1049800EB860004900AF1C1
:10064000010A09EB8809BA458DD3099808F1010818
:10065000001D09901098401E10907FF4E9AE0F998C
:10066000012904BF19B0BDE8F08F009911F0FF4FC8
:100670001CBF19B0BDE8F08F179907FB06F2002ADE
:100680004B684FF0000108D953F821C01CF0FF4F10
:1006900003D101F101018A42F6D88A421CBF19B088
:1006A000BDE8F08F6FF0040019B0BDE8F08F00BF17
:1006B00040F8042B491EFBD192E600BF40F8042B02
:1006C000491EFBD1A8E600002DE9F74F86B0D0F80F
:1006D00004900799DDF81CC04B68516804910188AB
:1006E000BCF802404088CDE902030023CDE9003187
:1006F000BCF80030984201BF1088814251888C427A
:100700001EBF6FF0020009B0BDE8F08F02984FEAFB
:100710005000059000990498A24600EB810B0798C1
:10072000D0F8041002984FF0000848B3A9F104076C
:10073000A1EB840610F0010F0AD006EB840657F8EF
:10074000040F31680AF036F8414609F081FE804610
:10075000059DADB156F8241078680AF02BF8414693
:1007600009F076FE06EBC4068046316857F8080F9C
:100770000AF020F8414609F06BFE80466D1EE9D173
:10078000AAF101001FFA80FA4BF8048B0398A4EB3E
:100790000A01BAF1000F00EB8101C3D10098204497
:1007A00080B20090029809EB80090198401E000475
:1007B000000C0190AED109B0BDE8F08F2DE9F041F9
:1007C0000388B1F800C046684D685768634508D192
:1007D00040884988884201BF11888B4251888842ED
:1007E00003D06FF00200BDE8F08103FB00F41CB3FE
:1007F000B4F1004F23D2002C1EDD2D1F361F3F1FEA
:1008000014F0010F07D055F8041F56F8040F0AF032
:1008100091F947F8040F64100ED0696870680AF007
:1008200089F9786055F8081F56F8080F0AF082F920
:1008300047F8080F641EF0D10020BDE8F081296858
:1008400030680AF077F947F8040B641E05F10405D7
:1008500006F10406F3D1EFE72DE9F00302884568BD
:10086000B0F802C0488800274E681446824205BF8F
:1008700009888C456FF002004FEA5C081CBFBDE898
:10088000F003704706EB8700BCF1000F1CD02B1F54
:10089000A0EB82011CF0010F04D001EB820153F8A0
:1008A000040F08605FEA08000CD000BFD3F8049082
:1008B00041F8229001EBC20153F8089FC1F8009063
:1008C000401EF3D105EB8C05781C87B2601E040432
:1008D000240CD7D1BDE8F003002070470FB40449C1
:1008E00010B503AA029800F007FB10BC5DF814FBDA
:1008F000700000202DE9F0474FF0000A89460446B9
:10090000C0F820A02046E1688847002876D0252836
:1009100006D0D4E901219047206A401C2062F1E70B
:10092000E168204600258847C4F81CA00646002739
:10093000C4F818A02A2E09D0304607F0ECF838B3D6
:1009400004EB8708303EC8F8186019E059F8041B1A
:10095000204604EB87029161E1688847012F064633
:1009600018D1E069002820DA25F020051DE0D8F82C
:10097000180000EB800006EB40003038C8F8180083
:100980002046E1688847064607F0C5F80028EED102
:10099000012F0AD02E2E08D12046E16888477F1CFF
:1009A0000646022F45F02005C4DBA069002803DAC3
:1009B000404245F00105A061E80701D025F010058F
:1009C000B6B1A6F14100192802D8203645F40065D9
:1009D0004A463146204625604D46FFF7E1FB58B1B7
:1009E000012806D0ED1D25F0070000F1080989E770
:1009F00004E005F1040985E730468AE7206ABDE88E
:100A0000F08700000FB400B58DB010A909900091D7
:100A10000B904FF0FF300A9000200C90064878446D
:100A20000690064878446A4607900F9909A800F096
:100A3000F7FC0DB05DF814FB1F0A0000370A000038
:100A40004FF0000200B5134694469646203922BF67
:100A5000A0E80C50A0E80C50B1F12001BFF4F7AFB2
:100A6000090728BFA0E80C5048BF0CC05DF804EB94
:100A7000890028BF40F8042B08BF704748BF20F802
:100A8000022B11F0804F18BF00F8012B7047704700
:100A90007047704710B500F0F7FC006810BD10B546
:100AA000044600F0F1FC046010BD70472DE9FF4FD3
:100AB0000C461E464FF0FF378BB0D2E90001DDF83F
:100AC00060800A908A46C1F30A5505B93D46002167
:100AD00008464FF00000BAF1000F00F4400005DABC
:100AE00000EB80004FF4400101EA50004FEA9059BA
:100AF000B9F1010F00DDB9460A9850EA4A000ED05C
:100B000044F61050A5F2FF3545432F14B8F1000FFD
:100B10001ED07542291E1EDDC9F100021CE0B8F18D
:100B2000010F4FF0000001D0302103E0F24305E057
:100B30002154401CB042FBDB3046002200212154EE
:100B40000B99C1F80880C1E900200FB0BDE8F08F13
:100B5000BD1B6D1CDEE74A4600DA694206A800F0BC
:100B6000DFFE06AB93E8070003AB83E807005046BF
:100B70000A9901F016FA8DE80700A0F500501F3819
:100B800000900398002D0ADD42F21F014A460844F6
:100B9000002303A90390684601F0C2FC09E0A0F518
:100BA00000504A461F38002303A90390684601F00D
:100BB000E1FC8DE807000004000C03D04FF0FF308B
:100BC000410800E01046B8F1000F03D00022009267
:100BD00015461EE0751E05D400F05AFC30326255F1
:100BE0006D1EF9D5B3460122084302D000227F1CB6
:100BF00004E02078302801D100227F1E002A0997C6
:100C000084D01DE0112D07DA00F042FC303262552D
:100C10006D1C50EA0102F5D1084302D00098C8B11A
:100C20000EE00021681E05E0235C625C63542254E0
:100C3000401E491C8142F7DBAB46A81B401E0990B1
:100C4000002004F80B000B98099AC0F80880C0E94E
:100C5000002B7AE711264FF0000857E72DE9F04FF7
:100C600088460446D21D22F0070191B0D1E9000167
:100C7000CDE90A0106F06EFD02460B98C00F01D0C7
:100C80002D2007E02068810701D52B2002E02021DC
:100C900001EAC000032A099001D0072A05DB0346B8
:100CA0004146204600F042FC0BE12078800601D549
:100CB000E06900E00620B8F1650F814606D0B8F182
:100CC000660F18D0B8F1670F70D131E00020B9F18C
:100CD000110F009001DB112301E009F101030AAAC1
:100CE00001A90CA8FFF7E2FEDDE90C70002609F16E
:100CF0000105834647E001204B4600904FF0004736
:100D00000AAA01A90CA8FFF7D1FEDDE90DB00C99E4
:100D10005D46002610B909F101000D18B9EB050078
:100D200003D4C0F1FF3609F10105A5EB09002BE062
:100D3000B9F1010F01DA4FF001090020B9F1110FEB
:100D40000090484601DD112300E003460AAA01A9EC
:100D50000CA8FFF7ABFEDDE90C704D46002683467C
:100D6000207800070AD4AB4500DA5D4601A8012DC2
:100D700004DD411911F8011C302907D04F4502DA72
:100D800017F1040F04DA012082460FE06D1EEEE732
:100D9000002F02DCED1B3E4403E0781CA84200DD7E
:100DA0007D1CB81B00F1010A4FF0004720780007B6
:100DB00003D4AA4501DB4FF0FF3A0021B7F1004F01
:100DC0000DF143088DF8431024D002202B23002F6F
:100DD00001DA7F422D230A21021EA0F1010000DC6E
:100DE0005FB197FBF1FC97FBF1F201FB1C7C17460E
:100DF0000CF1300C08F801CDEEE7A8F1010003700A
:100E00002188090501D5452100E06521A0F10108EF
:100E100000F8011C09980FA9A1EB0807FF1D00B1FC
:100E20000120411901EBEA70A1693844081A401EFB
:100E3000A0612078C00602D42046AFF30080099854
:100E400028B1D4E901219047206A401C2062207813
:100E5000C00622D52046AFF300801EE0002E04DB42
:100E6000B34502DD01A8805D00E03020D4E9012116
:100E70009047206A401C2062761CAAF101005FEABC
:100E8000000A0AD100F0FCFAC0680168405CD4E9AD
:100E900001219047206A401C2062281EA5F101050F
:100EA000DCDC07E0D4E9012118F8010B9047206A47
:100EB000401C2062381EA7F10107F3DC2046AFF387
:100EC0000080032011B041E601694A1C02610878E4
:100ED000704700B58FB0CDE901310021059105497A
:100EE0007944CDE9031011466846FFF703FD0FB0C2
:100EF00000BD0000E5FFFFFF074B70B50D467B44CA
:100F0000FFF7E7FF0446284607F05AFA10B14FF002
:100F1000FF3070BD204670BDC77400002DE9FF4F43
:100F200006468BB00878FF2806D0491C2D2805D02E
:100F300000244FF0000908E000200CE00124F8E74D
:100F400009EB8903491C00EB43090878FF28F7D116
:100F500014B1C9F100008146107800252C46AA463C
:100F600029462D2801D02B2804D1521C2D2813D01E
:100F7000002082468B461078FF280FD04FF0000CDF
:100F80000A21521CA5FB017804FB018105FB0C1111
:100F9000C5194BEB0104EEE70120EAE70021084602
:100FA0004FF00000BAF1000F02D000EB80004008C3
:100FB000C0F38157012F01DD4FF0FF370E9955EA3D
:100FC000040009EB01080BD04FF0020918F5FA7F75
:100FD00016DA4FEACA70002F706008DD012007E0C2
:100FE0004FEACA70C6E900B00FB0BDE8F08F00202C
:100FF000306000F049FAC0F800901821084616E069
:10100000B8F5FA7F18DD002F02DAF748784401E0DE
:10101000F6487844D0E90010C6E9001040EACA70EA
:10102000706000F031FAC0F80090142108460FB04B
:10103000BDE8F04F09F0F3BD002108464FF0000075
:10104000B8F10001099002DAC7F1000200E03A4667
:1010500001DAC8F1000106A800F062FC06AB93E8D3
:10106000070003AB83E8070044F23E005BEA04019B
:101070000090584604D144F21E012C465D46009172
:10108000210C0904014306D10099240444EA1544C3
:101090002D041039009104F07F41014306D10099DD
:1010A000240244EA15642D020839009104F07041CD
:1010B000014306D10099240144EA15742D01091F4A
:1010C000009104F04041014306D10099A40044EA94
:1010D0009574AD00891E009104F00041084304D1CD
:1010E00000986D196441401E00904FF001033A468C
:1010F0006846B8F1000FCDE9014503A902DD01F012
:101100004EFA01E001F021FABAF1000F04460D4653
:1011100001D084F00044002108464FF000000999F6
:1011200040F2FF77484010F00C0F07D124F0004048
:10113000284303D0C4F30A50B84212D100F0A4F9F6
:10114000C0F80090C4F30A50B8420AD1A8487844C5
:10115000D0E90010C6E9001004F0004108437060B7
:1011600042E7C6E900543FE72DE9FF4F1F464FF025
:10117000000A4FF0FF38454691B0D7E90146CDF857
:101180003CA000F07DF9C0680168405C1090B9692E
:1011900012986D1C8847396A814688470028F6D125
:1011A000B9F1FF3F0AD0002E24F4D06411DDB9F16B
:1011B0002B0F08D0B9F12D0F0BD102E0404615B02E
:1011C00013E744F48064B96912986D1C8847761E51
:1011D0008146600504A901D52D2000E02B20002EBA
:1011E00001F1010B0DF130088DF810003FDDB9F170
:1011F000690F08D0B9F1490F05D0B9F16E0F02D0CF
:10120000B9F14E0F1CD13B4601A8009580E8500271
:10121000DDE912126FF0020009F090FDC11CCED181
:101220000EE0B96912986D1C884781461398761EA6
:1012300044F4007405600F98401C002E0F9016DDDA
:10124000B9F1300FEDD0B9F1780F02D0B9F1580FE4
:101250000DD10F9801280AD13B46CDE90054DDE9B4
:101260001212001F029609F067FDC11CA7D1109948
:1012700089453ED144F0800406E01399681CAAF128
:10128000010A44F400740860B9696D1C1298761E56
:10129000884730288146F0D02BE01099894505D148
:1012A000200603D4761E44F0800418E0484606F079
:1012B00032FC08B3761E0DF123018B4544F4007413
:1012C00008D2A9F130000BF8010B200607D5AAF1CE
:1012D000010003E0200602D40AF101008246A005C5
:1012E00002D51399681C0860B96912986D1C88476B
:1012F0008146002ED1DC53E0002E51DDB9F1650F9F
:1013000002D0B9F1450F4BD1A00549D5B9696D1C83
:101310001298761E24F440748847002E81460CDD16
:101320002B2804D0B9F12D0F07D144F48074B9698A
:1013300012986D1C8847761E8146E00501D52D2147
:1013400000E02B2108F8011BCDF8008021E0761E7B
:101350000DF13901884544F400740CD2A9F1300034
:1013600010F0FF0088F8000002D10099884509D9E3
:1013700008F1010806E0E00501D51E4801E042F24F
:101380000F708246B96912986D1C88478146139880
:101390000560002E04DD484606F0BDFB0028D6D1CE
:1013A000F96912988847FF2053468BF8000088F8A7
:1013B000000000200A900B9004AA0CA90AA8FFF7CD
:1013C000ADFDA00502D46FF00100F8E614F0240F83
:1013D00012D0E0071CD13868DDE90A12031D3B601A
:1013E0000068C0E9001213E00C9F0000FE9E0000A0
:1013F000C29D0000F1D8FFFF0AA9684606F066FA10
:10140000E00705D13868009A011D39600068026064
:101410002846D4E6026811441378016018467047E4
:10142000D160054979445161044979441162002130
:101430001161114600F0BAB8EDFFFFFFED000000AA
:10144000426842B1016811F8013B23B1521EC0E964
:101450000012184670470121C160881E704742681B
:101460005AB1C368016843B983688B4205D0491EED
:10147000521CC0E90012002070474FF0FF30704747
:1014800000487047C04C002000487047A04C002026
:1014900030B5B0F10A024FEA900E71F100034EEA46
:1014A000817EB0EB0E0061EB91014FEA101E4EEA17
:1014B000017E10EB0E0041EB11114FEA102E4EEAA7
:1014C000016E10EB0E0041EB11214FEA104E4EEA77
:1014D000014E10EB0E0041EB1141401841F10001AB
:1014E0004FEAD00040EA41704FEAD10110EB80058D
:1014F0004FEA810444EA907444EB01046D1944EB13
:101500000404521BA3414FF0000348BF0A3200D528
:1015100030BD401C41F1000130BD10B5044600F063
:101520009BFA0068005D00F0010010BD2DE9F0415C
:101530001F46044603260168072A01F4006004DB05
:1015400008B116A505E016A503E008B115A500E051
:1015500015A521F010002060A069C01EA0610FB188
:10156000401EA0612046AFF300804FB1D4E90121B5
:1015700038469047206A401C2062C01C206206E06A
:10158000206AFAE7D4E9012115F8010B9047761E8D
:10159000F8D22046AFF30080BDE8F0814E414E0006
:1015A0006E616E00494E4600696E66002DE9F34F8C
:1015B0004FF0000A0C4656468DB001200C9001F108
:1015C0000C000B9062690B9801219047051E2DD0ED
:1015D000252D2CD0216A8847C0B162690B98012162
:1015E0009047216A88470028F7D16269411E0B980D
:1015F000904700E0761CA1690D988847216A8847CA
:101600000028F7D1E1690D988847DBE7A1690D98BB
:101610008847A842074601D1761CD3E7E1690D98B7
:1016200088477F1C02D1BAF1000F6FD06BE162696D
:101630000B9800273D46394690472A2804D1626915
:101640000B98012190470125DFF8D08262690B9841
:1016500001219047A0F130010A290AD24745E5DC73
:1016600007EB870100EB4107303FDFD445F0100561
:10167000ECE7E90601D46FF000476C280AD04C284B
:1016800014D0682815D06A280DD074281CD07A2868
:101690001AD01DE062690B98012190476C2802D096
:1016A00045F0040514E045F002050DE045F0200585
:1016B0000AE062690B9801219047682802D045F042
:1016C000080505E045F4006562690B980121904723
:1016D000C4E9015765283DD019DC58287AD00CDCC4
:1016E000452837D004DC252826D041289ED131E07A
:1016F00046282FD0472899D12CE05B2877D0612845
:1017000028D063287CD0642823D15AE0F6E06F28E3
:1017100048D008DC66281DD067281BD0692821D056
:101720006E2816D127E0702845D0732868D0752818
:1017300047D078280DD14DE0A1690D98884725281C
:1017400005463FF469AFE1690D9888476D1C3FF489
:101750006AAFD8E00D9923466A466FF0010009F0A0
:10176000E9FAC5E045F0400023464FF00002606012
:10177000A80736D43EE0E8077FF447AF2068011D94
:1017800021600068290501D506701BE7290701D5EE
:10179000068017E7A90703D5F117C0E9006111E733
:1017A00006600FE745F0400023464FF008026060F6
:1017B000A80716D41EE040F60E0125EA010060607D
:1017C00016E045F0400023464FF00A026060A8078B
:1017D00007D40FE045F040006060A80708D5234615
:1017E00010220D996FF00100AFF3008080E007E058
:1017F000102223460D996FF00100AFF3008077E0CF
:101800004FF0000963284F46C8464B46CB4602D0EE
:101810005B2806D038E0E80601D40120A06001274B
:1018200032E06269D4F80CB00B98012190475E2831
:1018300007D14FF0010949466269D4F80CB00B9802
:101840009047216939B900210A4603AB43F82120AA
:10185000491C0829FADBD8B3216949B308F101080A
:1018600062690B98012190475D28F4D1B9F1000F0E
:1018700009D0002003A951F82020D24341F82020AC
:10188000401C0828F7DB03AB2069002820794FEAC9
:1018900040701ED05B462246CDF80080CDE901970E
:1018A0000D9900286FF0010020DAAFF300801FE0EF
:1018B000C11703AA00EBD1614B1121F01F0102EB0C
:1018C0008302411A13680120884003431360C7E76D
:1018D00019E00D99224600286FF00100009702DA06
:1018E000AFF3008004E0AFF3008001E0AFF30080CD
:1018F00000280ADA401C06D10C9820B14FF0FF30C6
:101900000FB0BDE8F08F5046FAE7E90701D10AF1C0
:10191000010A064400200C9054E60000CCCCCC0C0C
:101920002DE9F047814616468AB0354878440DC8FF
:101930008DE80D0032487844801C03AC0DC884E863
:101940000D0041F69B300844372190FBF1F290FBEB
:10195000F1F5A5F1800501FB12041B3C02D56442A0
:10196000012000E00020DFF898A080460027FA441C
:10197000AAF1BE0A0EE0E0070AD03246684607EB3D
:10198000470101230AEB810100F0F4FD8DE8070017
:1019900064107F1C002CEED1194F7F44AE3F19E03C
:1019A000E80715D007EB04100DF1180A90E80E00B7
:1019B0008AE80E00C068F04201D1981908903246BA
:1019C000012306A903A800F0D5FD03AB83E80700B7
:1019D0006D10641C002DE3D14FF0010332466946BF
:1019E000B8F1000F03A802D000F09AFD01E000F06A
:1019F000C1FDC9E90001C9F808200AB0BDE8F087B7
:101A0000AC95000000487047A04C00207546FFF7D9
:101A1000F9FFAE4605006946534620F007008546AB
:101A200018B020B5FEF73CFCBDE820404FF00006A2
:101A30004FF000074FF000084FF0000B21F00701B6
:101A4000AC46ACE8C009ACE8C009ACE8C009ACE8F9
:101A5000C0098D467047000010B5FFF711FD001D4D
:101A600010BD00BF417D00002DE9FF4F1F464FF024
:101A70003C0987B04FF00042DDE9141001F1010884
:101A8000DDF858A002EA40500390002005908346FC
:101A9000054604460490B969461E08988847AAF18D
:101AA000010A0290BAF1000F3BDD02982E2815D0F2
:101AB000102100F060FA00282EDB4FF0010B059991
:101AC000014317D0B9F1000F0BDB4A46C11700F0F4
:101AD0003FFA05430C43A9F1040905E001200490F5
:101AE0000BE008B145F0010501200590049820B9EC
:101AF000361D02E0049800B1361FB969089808F154
:101B000001088847BBF1000FAAF1010A0290C9D071
:101B10000999C1F80080C5E70298702808D05028BC
:101B200006D0F96908988847BBF1000F14D04FE040
:101B3000002002900120BBF1000F049009D0B96988
:101B4000089808F101088847AAF10109B9F1000FC6
:101B500007DCF969089888476FF001000BB0BDE811
:101B6000F08F2B2804D02D280CD14FF0FF3004909B
:101B7000B969089808F101088847A9F10109B9F184
:101B8000000FE6DD411CE4D00A2100F0F4F9002842
:101B9000DFDB029908F1010801EB810100EB410054
:101BA0000290B969089888470A2100F0E4F9099A77
:101BB000A9F10109B9F1000FC2F8008001DD002888
:101BC000E7DAF969089888470499029800FB0166EA
:101BD00055EA040004D004F04041090002D006E0B8
:101BE000039898E0A40044EA9574AD00B61E04F092
:101BF0000041080002D16D196441761E159810F05D
:101C0000240F03D04FF00B095C4803E04FF0280984
:101C10006FF07D008246564507DAAAEB060189443B
:101C2000B9F1410F01DD4FF0410901200021A9F177
:101C3000010200F08DF9024628400B46214008437E
:101C400001D0012100E00021501E029143F1FF313B
:101C500028402140084301D0012000E000200299E3
:101C6000834651EA0B014FD0002108464FF0000097
:101C7000039900F4400039B100EB80004FF44001BB
:101C800000EBD07001EA60008015012802DD4FF002
:101C9000FF3000E013D0401C36D0029860B3BBF197
:101CA000000F0CD14A460120002100F051F92840D4
:101CB0002140084301D0012000E00020E0B10120D4
:101CC0004A46002100F044F9034640190A466141A2
:101CD0002D1A8C4111D3B9F1400F09DD159810F080
:101CE000240F02D0AAF1340603E0AAF1170600E09F
:101CF000761C00254FF0004406E05B1E42F1FF32E7
:101D000020EA030521EA0204CAF10100B04206DA22
:101D10001B49039808430190002000900EE0039AAD
:101D2000C4F3D321E80A0A43164940EA44500A435F
:101D30003146CDE90002684605F0E2FE159810F044
:101D4000240F0BD01598C00715D13868DDE90012B3
:101D5000031D3B600068C0E900120CE002A8694660
:101D600005F0B4FD1598C00705D13868029A011D29
:101D70003960006802604046F0E6000002FCFFFFA8
:101D80000000F07F0000F03F2DE9FF4F92461D4616
:101D900085B04FF00041DDE9124BDDE914727F1E82
:101DA00001EA4B50414940F0FF4940EA0108002157
:101DB00022F020004928049102D04E2828D04CE07F
:101DC0003BA0012607C88DE80700A9690698641C96
:101DD00088477F1E014606D41DF8060018B121F081
:101DE000200181420BD0E96906988847032E34D040
:101DF000082E32D06FF0010009B0BDE8F08F761CDC
:101E0000032E01D0082EE0D1601CCAF80000DCE7E8
:101E1000A9690698641C88477F1E2AD420F02000F8
:101E2000412826D1A9690698641C88477F1E20D4C2
:101E300020F020004E281CD1A9690698641C884710
:101E40007F1E48F4002849F48009CAF8004001D4F4
:101E5000282806D0E969069888475FEACB7012D037
:101E600022E0A9690698641C88477F1E01D40028D7
:101E700003DAE96906988847BCE72928F1D1641C90
:101E8000CAF80040E9E71BF0240F07D0286804993E
:101E9000031D2B600068C0E9001805E02868021DDA
:101EA0002A600068C0F800902046A5E70000F07F97
:101EB000494E46494E4954590000000010B50446A9
:101EC000AFF300802046BDE81040FEF789B900005E
:101ED0004FF0013C50F8042B51F8043B9A4221D1B9
:101EE000A2EB0C03934313EACC1317D150F8042B45
:101EF00051F8043B9A4215D1A2EB0C03934313EA29
:101F0000CC130BD150F8042B51F8043B9A4209D161
:101F1000A2EB0C03934313EACC13DBD04FF0000089
:101F2000704700BFD01A01BAB1FA81F101F018016F
:101F300022FA01F0CB40C1F12001DBB2C0B2C01ADD
:101F40002CFA01F3D11A914311EAC311E6D170477B
:101F5000B2F120030AD5C2F1200301FA02F120FAFE
:101F600003F300FA02F041EA0301704700FA03F1BB
:101F70004FF0000070473A2800D2303820F020029D
:101F8000412A01D3A2F13700884201D34FF0FF303C
:101F90007047000001491820ABBEFEE72600020092
:101FA00070475FEA400C08BF91F0000F4FEA8C23A6
:101FB0004FEAC12243EA51514FEA1C5018BF00F5C5
:101FC000F0404FEA300018BF41F000415FEA6C5C1E
:101FD00000F02980BCF1FF3F08BF40F0804070470F
:101FE000130C06BF12044FF0100C4FF0000C130E30
:101FF00004BF12020CF1080C130F04BF12010CF104
:10200000040C930F04BF92000CF1020CD30F04BF19
:1020100052000CF1010C11464FF00002A0F11F001C
:10202000A0EB0C00704711F0004F08BF704731F073
:1020300000413FF4D5AF0B0C06BF09044FF0100C64
:102040004FF0000C0B0E04BF09020CF1080C0B0F33
:1020500004BF09010CF1040C8B0F04BF89000CF1C3
:10206000020CCB0F04BF49000CF1010CCCF1200392
:10207000A0EB0C0022FA03F302FA0CF241EA03018E
:1020800000F10100704720F07F4C80EA030023F04C
:102090007F47ACEB070303F57C5300F0004003F1EE
:1020A000FF032DE980494FEA154B09B44FEA144369
:1020B00025EA0B4E24EA03480FF2042606EB132709
:1020C00049083E785FEA320203FB0667C7F500075E
:1020D00007FB06F64FEA54374FEAD64606F10206EA
:1020E00007FB066CCCF1005C4FEA1C472CEA074C5E
:1020F00007FB06F40CFB06F504EB15464FEA9616B3
:1021000034BF00204FF000404FEAD13706FB07FCF8
:102110004FEA1C4C0CFB0BF7D21B03FB0CF761EBDB
:1021200007010CFB0EF7B0EB074072EB17420CFBFC
:1021300008F734BFA2EB0742B2EB074261EB17414D
:102140004FEA0C444FEA910706FB07FC4FEA1C4C90
:102150000CFB0BF7B0EBC74072EB573203FB0CF7ED
:1021600034BFA2EBC742B2EBC74261EB57310CFB65
:102170000EF7B0EBC70072EB57720CFB08F734BFD9
:10218000A2EBC702B2EBC70261EB5771039F4FEAA4
:10219000816141EA921104EBCC044FEAD1374FEA56
:1021A000826206FB07FC42EA90124FEA80604FEA27
:1021B0001C4C0CFB0BF7D21B03FB0CF761EB07016C
:1021C0000CFB0EF7B0EB074072EB17420CFB08F765
:1021D00034BFA2EB0742B2EB074261EB17414FEA73
:1021E0008C554FEA910704EB9C2406FB07FC4FEA51
:1021F0001C4C0CFB0BF7B0EBC74072EB573203FBE8
:102200000CF734BFA2EBC742B2EBC74261EB5731C8
:102210000CFB0EF7B0EBC70072EB57720CFB08F724
:1022200034BFA2EBC702B2EBC70261EB577115EBEB
:102230004C254FEA816141EA92114FEA82624FEAEE
:10224000D13742EA901206FB07FC44F100044FEA42
:1022500080604FEA1C4C0CFB0BF7D21B03FB0CF706
:1022600061EB07010CFB0EF7B0EB074072EB174276
:102270000CFB08F734BFA2EB0742B2EB074261EB5D
:10228000174115EB1C154FEA813141EA92414FEAA3
:10229000823242EA90424FEA80304FEA0C7644F1B3
:1022A000000448EA03434EEA0B484FF0000EB2EB3D
:1022B000080C71EB030724BF624639464EEB0E0E45
:1022C0004FF0000B0018524149414BEB0B0BB2EBA6
:1022D000080C71EB03077BF1000B24BF6246394603
:1022E0004EEB0E0E4FF0000B0018524149414BEBE4
:1022F0000B0BB2EB080C71EB03077BF1000B24BF57
:10230000624639464EEB0E0E51EA020718BF46F000
:10231000010616EB0E7655F1000254F1000103D5CB
:10232000BDE88901BDE80088BDE88901BDE8004835
:10233000B619524141EB0101A3F1010370478080BE
:102340007F7E7D7C7B7A797877767675747372710F
:1023500071706F6E6E6D6C6C6B6A6A6968686766C7
:1023600066656464636362616160605F5F5E5E5D59
:102370005D5C5C5B5B5A5A595958585757565655CD
:1023800055555454535352525251515050504F4F2F
:102390004F4E4E4D4D4D4C4C4C4B4B4B4A4A4A497F
:1023A00049494848484747474746464645454544C2
:1023B000444444434343434242424241414100007A
:1023C00046EA0646A3F570534FEA164646EA4256D9
:1023D0004FEAD22242EA415210B54FEAD121A3F18D
:1023E000010300F02FF820F0004000F1020C00F093
:1023F000004701EB00501146BCF5006F40EA0700B2
:1024000000D210BDBAF1000F0AD01CB503B44FF0D2
:1024100004004FF004014FF000000FBCBDE8104075
:102420004FF00001BBF1010FB9BF04484FF0FF317D
:102430000348002140EA070010BD00BFFFFFEF7F07
:102440000000F07F002B9C4630D477002BD01CB5C9
:102450004FEA370703B44FF010004FF01001BAF104
:10246000000F06D0BCF1000FDCBF40F0080040F0C8
:1024700008014FF000000FBCBDE810400BF1010B4C
:10248000BBF1010F08BF5FEA170722BF12F101027B
:1024900011F101014FF0004143F1000300F0004051
:1024A00043EA00007047F9D35708D0E746EA0646EA
:1024B00013F1400F4FEA16461FDD13F1200FDFBF67
:1024C00016430A46002120335B42BED0C3F12007E9
:1024D00046EA064602FA07F74FEA164646EA0706B4
:1024E000C3F1200722FA03F201FA07F721FA03F1F8
:1024F0004FF0000342EA0702A7E746EA020646EA6F
:1025000006464FEA164646EA0106BCBF46EA0646BC
:10251000360C4FF000034FF000024FF0000194E73B
:102520002DE9804C9A46934670B491E8380007C86C
:1025300031EA400C48BF34EA430C03D5FFF7A3FD52
:10254000FFF780FFF0BCBDE8008C2DE9804C9A4677
:10255000934670B491E8380007C831EA400C48BF90
:1025600034EA430C03D5FFF78EFDFFF729FFF0BCDB
:10257000BDE8008C2DE9804C9A46934670B491E8F2
:10258000380007C810F0804F08BF13F0804F03D108
:1025900000F01AF8FFF756FFF0BCBDE8008C2DE9FB
:1025A000804C9A46934670B491E8380007C810F002
:1025B000804F08BF13F0804F03D100F005F8FFF7FC
:1025C000FFFEF0BCBDE8008C20F07F4780EA0300EE
:1025D00023F07F4C07EB0C03A3F57C5300F0004085
:1025E000A3F1FE0392F0000F00F0B38095F0000F0E
:1025F00000F077802DE901494FEA11404FEA144677
:1026000021EA004800FB06FC24EA064708FB06F620
:1026100007FB08F800FB07F718EB06484CEB164CD5
:102620004FEA124B18EB07484FEA15464CEB1740A0
:1026300022EA0B4E0BFB06FC25EA06470EFB06F6CC
:1026400007FB0EFE0BFB07F71EEB064E4CEB164C82
:102650004FF000061EEB074E4CEB174B18EB0B0828
:1026600040F1000018EB0E0B58EB000840F10000A1
:102670008F1A4FF000013CBFC943661B14BFB5EB76
:10268000040C00213CBFC943F61B4FEA17444EEA35
:102690008E0E27EA04454FEA1C4704FB07622CEA2A
:1026A000074C05FB07F70CFB05F604FB0CFC16EBCF
:1026B000074642EB174216EB0C4642EB1C421BEB63
:1026C000060658EB0202414146EA9E0601D5BDE8E6
:1026D0000189B619524141EB0101A3F10103BDE8A3
:1026E00001894FEA14454FEA114724EA054621EAD9
:1026F000074C05FB07F406FB07F70CFB06F105FB8F
:102700000CFC11EB074144EB17444FEA124711EB65
:102710000C4144EB1C4422EA074C05FB07F206FB84
:1027200007F70CFB06F605FB0CFC16EB074642EB25
:10273000174216EB0C4642EB1C456A1854F1000197
:1027400048BF7047B619524141EB0101A3F10103A3
:10275000704795F0000F37D04FEA11424FEA144707
:1027600021EA024624EA074C02FB07F106FB07F7C1
:102770000CFB06F402FB0CFC14EB074441EB174185
:102780004FEA154714EB0C4441EB1C4125EA074C7A
:1027900002FB07F506FB07F70CFB06F602FB0CFC39
:1027A00016EB074645EB174516EB0C4645EB1C426E
:1027B000121951F1000148BF7047B619524141EB5F
:1027C0000101A3F1010370474FEA14454FEA114795
:1027D00024EA054621EA074C05FB07F106FB07F74B
:1027E0000CFB06F24FF0000605FB0CFC12EB074257
:1027F00041EB174112EB0C4251EB1C4148BF7047B3
:10280000921841EB0101A3F10103704700BFFEE7FD
:102810001CB50648012100238022CDE9001004A147
:10282000064806F0AFFD06F00BFD1CBDA40300201A
:102830004361725F537461727400000041280008A4
:102840001CB5044606F024FC114804210023802214
:10285000CDE900100FA1124806F094FD11480321A4
:1028600000238022CDE900100FA1134806F08AFD55
:102870001248022100238022CDE9001010A1134844
:1028800006F080FD002006F071FC06F013FC1CBD74
:10289000A8030020446174615F5461736B00000001
:1028A000A9350008AC030020436F6E74726F6C5F33
:1028B0005461736B00000000D1280008B0030020B1
:1028C00053686F775F5461736B0000007D6A000886
:1028D00008B506F0D5FD009015E00B4800780128FA
:1028E00001D104F0C1FE04F0E1FA084800780128A3
:1028F00001D100F081FE04F05DF800BF0A216846B6
:1029000006F074FD00BFE8E75501002056010020E5
:1029100010B5024801F068FA10BD0000E44900203B
:1029200030B590F840500124AC40C56B6C60046831
:1029300063604468102C04D10468A2600468E160FC
:1029400003E00468A1600468E26030BD00B591B0A6
:1029500005F074FDFE4880680890FD488068079087
:10296000089907F027FF0A90F94840680690F84850
:1029700040680590069907F01DFF0890F44800682C
:102980000690F34800680590069907F013FF07903A
:10299000089907F05DFD09900A9907F059FD0B9021
:1029A00005F0BEFD1090EA4800680B90109907F002
:1029B00001FFE8490860E64840680B90109907F06D
:1029C000F9FEE5490860E24880680B90109907F02D
:1029D000F1FEE2490860E24880680890E04800683B
:1029E0000790089907F0E6FE0A90DD48C068089055
:1029F000DB4840680790089907F0DCFE09900A99C7
:102A000008F098F84FF080410B9007F0D3FED549BD
:102A10000860D34840680890D1480068079008993A
:102A200007F0C8FE0A90CE48C0680890CC4880687D
:102A30000790089907F0BEFE09900A9907F008FD73
:102A40004FF080410B9007F0B5FEC7490860C448BD
:102A5000C0680990C248C0680890099907F0AAFEAA
:102A60000B90BF4880680790BD4880680690079922
:102A700007F0A0FE0990BA4840680590B848406841
:102A80000490059907F096FE0790B54800680590F8
:102A9000B34800680490059907F08CFE06900799EA
:102AA00008F048F80890099908F044F80A900B9942
:102AB00007F0CEFCAD490860AD4AAE49AE4803F020
:102AC0004BFAAB480168006807F074FE0A90A94809
:102AD0000168006807F06EFE0890A748016800686A
:102AE00007F068FE0790089907F0B2FC09900A9970
:102AF00007F0AEFC0B9005F013FD10909E48109966
:102B0000006807F057FE9D4908609A4810990068D0
:102B100007F050FE9A49086095481099006807F040
:102B200049FE984908608E48806805908C48006886
:102B30000490059907F03EFE07908948C06805900B
:102B4000874840680490059907F034FE069007997D
:102B500007F07EFC4FF0804109908A48006807F03A
:102B600029FE0890099907F025FE0B907C48C06863
:102B700003907B4800680290039907F01BFE0590C4
:102B8000774880680390764840680290039907F080
:102B900011FE0490059907F0CDFF4FF0804107909A
:102BA0007748006807F006FE0690079907F002FED6
:102BB00009906B48C068014603904FF0804007F0D1
:102BC000F9FD04906648C06801460390049807F038
:102BD000F1FD069062488068014602904FF0804007
:102BE00007F0E8FD03905E48806801460290039874
:102BF00007F0E0FD4FF07E51049007F009FF0590CB
:102C0000069907F097FF07905C480168079807F05E
:102C1000D1FD0890099907F01BFC0A900B9907F069
:102C200017FC594908604E48406805904C480068B8
:102C30000490059907F0BEFD07904948C0680590CB
:102C4000474880680490059907F0B4FD06900799FD
:102C500007F070FF4FF0804109904A48006807F084
:102C6000A9FD0890099907F0A5FD0B903C48C068A4
:102C7000014603904FF0804007F09CFD04903848D7
:102C8000C06801460390049807F094FD069034480C
:102C90004068014602904FF0804007F08BFD0390A2
:102CA0002F48406801460290039807F083FD4FF0DB
:102CB0007E51049007F0ACFE0590069907F03AFFAC
:102CC00007902F480168079807F074FD0990244881
:102CD000C0680390224800680290039907F06AFDDB
:102CE00005901F48806803901D4840680290039932
:102CF00007F060FD0490059907F0AAFB4FF08041B2
:102D000007901E48006807F055FD0690079907F0E8
:102D100051FD0890099907F09BFB0A900B9907F069
:102D200097FB1A4908600E488068014605904FF0ED
:102D3000804007F03FFD06900948806801460590F5
:102D4000069807F037FD08900548406801461FE0E7
:102D5000584B0020BC010020C0010020C40100200D
:102D60000C020020E0010020E4010020E801002026
:102D7000D0010020CC010020C8010020D401002097
:102D8000D8010020DC010020EC010020F00100202F
:102D900004904FF0804007F00DFD0590FE4840681C
:102DA00001460490059807F005FD4FF07E5106900E
:102DB00007F02EFE0790089907F0BCFE0990F7482F
:102DC0000168099807F0F6FC0B90F34840680390FF
:102DD000F14800680290039907F0ECFC0590EE487A
:102DE000C0680390EC4880680290039907F0E2FC09
:102DF0000490059907F02CFB4FF080410790E848BC
:102E0000006807F0D7FC0690079907F0D3FC0990FB
:102E1000E14880680390E04800680290039907F059
:102E2000C9FC0590DC48C0680390DB48406802900C
:102E3000039907F0BFFC0490059907F07BFE4FF063
:102E400080410790D748006807F0B4FC06900799C6
:102E500007F0B0FC0890099907F0FAFA0A900B996C
:102E600007F0F6FAD0490860D0480168006807F01A
:102E7000A1FC0690CE480168006807F09BFC059015
:102E8000069907F0E5FA079007F0B6FACDE90801D0
:102E900006F078F8CDE90A0106F09AFCC549086009
:102EA000C1480068C4490860BB4880680590BA48BA
:102EB00000680490059907F07DFC0790B648C0684B
:102EC0000590B54840680490059907F073FC06909A
:102ED000079907F02FFE4FF080410990B64800682F
:102EE00007F068FC0890099907F064FC0B90AA4869
:102EF000C068014605904FF0804007F05BFC0690EB
:102F0000A548C06801460590069807F053FC089054
:102F1000A1488068014604904FF0804007F04AFCC9
:102F200005909D48806801460490059807F042FC92
:102F30004FF07E51069007F06BFD0790089907F05F
:102F4000F9FD09909B480168099807F033FC0A9045
:102F50000B9907F07DFA994908608F484068059001
:102F60008D4800680490059907F024FC07908A4872
:102F7000C0680590884880680490059907F01AFC9D
:102F80000690079907F064FA4FF0804109908A484B
:102F9000006807F00FFC0890099907F00BFC0B90F4
:102FA0007D48C06805907C4800680490059907F04A
:102FB00001FC079078488068059077484068049045
:102FC000059907F0F7FB0690079907F0B3FD4FF05E
:102FD000804109907748006807F0ECFB0890099958
:102FE00007F0E8FB0A900B9907F032FA7449086081
:102FF00069488068014605904FF0804007F0DAFB91
:1030000006906548806801460590069807F0D2FB57
:10301000089061484068014604904FF0804007F0F6
:10302000C9FB05905C48406801460490059807F08C
:10303000C1FB4FF07E51069007F0EAFC079008991B
:1030400007F078FD09905C480168099807F0B2FB29
:103050000B905148806805904F480068049005998E
:1030600007F0A8FB07904C48C06805904A484068A4
:103070000490059907F09EFB0690079907F0E8F980
:103080004FF0804109904B48006807F093FB08908F
:10309000099907F08FFB0A900B9907F0D9F9494974
:1030A0000860494801684948006807F083FB0B90B5
:1030B000474801684748006807F07CFB0A900B9975
:1030C00007F038FD444908604148016843480068FA
:1030D00007F070FB0B90424801683C48006807F01D
:1030E00069FB0A900B9907F025FD3E4908603348BB
:1030F00001682B48006807F05DFB099030480168C3
:103100002848006807F056FB0890099907F012FD5F
:103110000B90334801682F48006807F04BFB09907B
:10312000294801682D48006807F044FB0890099978
:1031300007F000FD0A900B9907F08AF92A49086008
:103140002548006807F058F9CDE9040127480CC864
:10315000049806F041FECDE908012548006807F013
:103160004BF9CDE90601DDE9082306F063FBCDE963
:103170000A0106F02DFB1E4908601A48006807F096
:103180003BF9CDE9040119480CC8049806F024FE67
:10319000CDE9080117482FE00C020020DC010020D7
:1031A000D8010020D4010020F4010020F00100200B
:1031B000EC010020F8010020FC01002000020020AA
:1031C0000402002008020020E4010020C4010020C5
:1031D000E8010020C00100201C020020BC010020EA
:1031E000E00100202002002024020020A80100208D
:1031F000280200202C020020006807F0FDF8CDE92D
:103200000601DDE9082306F015FBCDE90A0106F009
:10321000DFFADA490860DA48006807F0EDF8CDE92E
:103220000401D8480CC8049806F0D6FDCDE9080181
:10323000D548006807F0E0F8CDE90601DDE908238C
:1032400006F0F8FACDE90A0106F0C2FACE490860A4
:10325000CE48006807F0D0F8CDE90401CC480068FA
:1032600007F0CAF8CDE90001CA480CC8009806F07A
:10327000B3FDCDE90201DDE9042306F0DBFACDE977
:103280000801C548C068059007F0B6F8CDE9060109
:10329000DDE9082306F0CEFACDE90A0106F098FA36
:1032A000BD49C860B548006807F0A6F8CDE904013B
:1032B000BA48006807F0A0F8CDE90001B5480CC88D
:1032C000009806F089FDCDE90201DDE9042306F04E
:1032D000B1FACDE90801B0480069059007F08CF813
:1032E000CDE90601DDE9082306F0A4FACDE90A01DB
:1032F00006F06EFAA8490861A348006807F07CF858
:10330000CDE904019E48006807F076F8CDE9000198
:10331000A0480CC8009806F05FFDCDE90201DDE988
:10332000042306F087FACDE908019B48406905901F
:1033300007F062F8CDE90601DDE9082306F07AFA24
:10334000CDE90A0106F044FA934948619448C068FF
:103350000790084640690690079907F02BFA0990F4
:103360008F48806805908C4800690490059907F0A3
:1033700021FA07908848C06880F00040059088488E
:10338000406801460490059807F014FA06900799E2
:1033900007F0D0FB0890099907F0CCFB81490A900F
:1033A00007F008FA0B907E48006801460A900B98D7
:1033B00007F04EF80C907A4880680790764840698C
:1033C0000690079907F0F6F909907548C0680590CE
:1033D000714800690490059907F0ECF9079070486E
:1033E000006805906C48C0680490059907F0E2F900
:1033F0000690079907F09EFB0890099907F028F8B6
:1034000068490A9007F0D6F90B9065484068014674
:103410000A900B9807F01CF80D90614840680790DF
:103420005D4840690690079907F0C4F909905C4827
:1034300000680590584800690490059907F0BAF9AA
:1034400007905748C06805905348C0680490059994
:1034500007F0B0F90690079906F0FAFF089009996D
:1034600007F068FB4F490A9007F0A4F90B904C480D
:10347000806801460A900B9806F0EAFF0E904848D3
:1034800000680790444840690690079907F092F950
:1034900009904348406805903F48006904900599A9
:1034A00007F088F907903C48C06880F0004005901C
:1034B0003B48806801460490059807F07BF9069028
:1034C000079906F0C5FF0890099906F0C1FF354934
:1034D0000A9007F06FF90B903148C06801460A90D6
:1034E0000B9806F0B5FF0F900F98089001460790D3
:1034F00007F060F90A900E9806900146059007F0D3
:1035000059F908900D9804900146039007F052F97C
:1035100006900C9804900146039007F04BF9059033
:10352000069906F095FF0790089906F091FF09901B
:103530000A9906F08DFF0B9004F0F2FF10900C98A2
:103540000B90109907F036F9154908600D980B900B
:10355000109907F02FF9124948600E980B901099B6
:1035600007F028F90E4988600F980B90109907F022
:1035700021F90B49C86011B000BD00002C020020E9
:1035800024020020A8010020300200202802002090
:103590001C020020A0010020584B00202002002027
:1035A0000C0200200AD7A33B08B505F069FF009084
:1035B0000FE000F07DFA00F053FA06480078032887
:1035C00001D100F0EDF800BF0A21684605F00EFFBA
:1035D00000BFEEE750020020704710B504462046B9
:1035E00000F052FD10BD810800E000BF0A1EA1F1ED
:1035F0000101FAD1704700002DE9F04F85B0554820
:10360000007802287ED1544801685448006807F0C9
:1036100091FA8346524801685248006807F08AFAD6
:1036200004900499084607F0C5F881465946584663
:1036300007F0C0F84946039006F00AFF804606F0FE
:10364000DBFE064605F09EFC044606F0C1F8824605
:1036500051464548006806F0FBFE4349086043496F
:103660004148006807F072F903D240483E490860BB
:1036700008E03F493C48006807F068F802D23C483F
:10368000394908603B4801683748006807F092F8FC
:10369000044639480168504607F08CF80546214633
:1036A00006F0D6FE3549086051463548006807F0F7
:1036B00041FA344908603449504607F047F80CD8BD
:1036C000002024490870284908602C4908602F48C8
:1036D0002B49086005B0BDE8F08F2D4929480068E6
:1036E00007F034F831D200201F49086023490860F0
:1036F0002648234908601A4801681A48006807F0FC
:1037000019FA00E024E0019006F076FE06460F4626
:10371000114801681148006807F00CFA019006F0A2
:103720006BFE32463B46CDE9020104F09DFB80462C
:10373000184A194B06F050FB044606F049F81749A1
:103740000860012003490870C4E70D48C0F800A0D4
:1037500000BFBFE794010020580200207C01002038
:103760005C020020800100209C01002000401C46DB
:1037700000401CC688010020840100207801002040
:103780008C010020900100200000404000007A449D
:10379000000080BFD9CEF753E3A54C406C01002058
:1037A00070B5A2B0984B0122042120A8FCF7D8FDE7
:1037B000964B012202211EA8FCF7D2FD944B042255
:1037C00011461CA8FCF7CCFD924B042211461AA806
:1037D000FCF7C6FD904B0422114618A8FCF7C0FD6B
:1037E0008E4B0422022114A8FCF7BAFD8C4B022256
:1037F000042112A8FCF7B4FD12A914A8FDF72CF8B7
:10380000884B0422114616A8FCF7AAFD864B02221B
:10381000114610A8FCF7A4FD844B022204210EA837
:10382000FCF79EFD824B022204210AA8FCF798FDBA
:10383000804B0422022108A8FCF792FD7E4B022255
:10384000114606A8FCF78CFD7C4B0122022104A83E
:10385000FCF786FD7A4B0122042102A8FCF780FDCB
:10386000784B042211466846FCF77AFD764B042219
:1038700011460CA8FCF774FD03F038F96249C868DA
:1038800004F0E0FC0446714906F094FF6149886049
:103890005D49C86805F0B2FA06465B48806880F06A
:1038A00000453146284606F085FF0446674906F084
:1038B00081FF5849C8605449C86805F09FFA04461A
:1038C000624906F077FF534988614F49C86804F0A0
:1038D000B9FC05464C488168284606F06BFF044653
:1038E0005A4906F067FF4B49C86118A91AA8FCF7A6
:1038F000B3FF4549C86804F0A5FC06464248816804
:10390000304606F057FF0546504906F053FF04467F
:103910003D480168204606F09BFD3B490860C868A9
:1039200005F06CFA064638488168304606F042FFDA
:103930000546464906F03EFF0446334841682046A6
:1039400006F086FD30494860414800682F4908600C
:103950004048006848601CAA1CA91AA8FCF7B4FEDD
:103960001CAA18A91CA8FCF7AFFE1CAA16A91CA823
:10397000FCF7A8FC0AAA12A91CA8FCF7A5FE08AA35
:103980001CA914A8FCF7A0FE06AA12A908A8FCF717
:103990009BFE06AA10A906A8FCF794FC06A906A897
:1039A000FCF7E2FC0EAA06A90AA8FCF78DFE04AA01
:1039B00020A914A8FCF788FE04AA04A91EA8FCF7F5
:1039C000FDFE02AA04A90EA8FCF77EFE20AA02A909
:1039D00020A8FCF777FC6A4614A90EA8FCF774FE31
:1039E0006A4669460CA8FCF7E9FE1CAA1CA96846B1
:1039F000FCF76AFE044800681749086002484068FE
:103A00001649086022B070BD704B00206002002093
:103A100068020020A8020020804B0020E80200205D
:103A2000C04B00200803002048030020E04B00208A
:103A3000004C0020204C0020404C00205803002067
:103A4000504C0020604C0020600300200AD7233C2B
:103A500054020020440200205C0200205802002092
:103A60000D480068406A404200B20C4908800020BE
:103A70000949096848620A480068406A00B2094971
:103A80000880002006490968486204480088400010
:103A900000B2024908807047C4480020740000202A
:103AA0000C4900207600002072B600BFFEE700003F
:103AB0002DE9FE4F7648007838B900F097FC75493B
:103AC000086001207249087019E0714800780128E7
:103AD00004D100F08BFC7049086010E06C4800785D
:103AE00002280CD1002140076C4AC2E900106C4941
:103AF0006C486D4AC2E900100320654908706648A9
:103B0000006864490968401AB0F57A7F06DB6048AE
:103B10000078012802D102205D49087004F08EFC73
:103B2000FEF714FF5A48007803287DD15F4A516898
:103B3000506806F03FFE5D4A01909168906806F07B
:103B400039FE0090019906F083FC4FF0804102900D
:103B500006F030FE83464FF07E5106F059FF814655
:103B6000524A5168106806F025FE504A0290D1680A
:103B7000906806F01FFE0190029906F069FC8346EA
:103B80004FF0804106F016FE8246494604F02CFABA
:103B9000044606F031FC0746454A464B06F01CF940
:103BA000054605F015FE44490860404AD168506852
:103BB00006F000FE83463D4A9168106806F0FAFD63
:103BC0005946029006F0B6FF82464FF0804106F05B
:103BD000F1FD814603F0A6FF044606F00DFC074602
:103BE000334A344B06F0F8F8054605F0F1FD334949
:103BF00008603349486906F0FFFB82462C4A2D4B8A
:103C000006F0EAF880464FF080422E4B06F0E4F8CA
:103C1000CDE900012C48006806F0EEFB0646DDE920
:103C2000002305F007FE00E02FE0044605F0D0FD7C
:103C30002549086025492448006806F087FE07D218
:103C400023492148006806F075FF1F49086000E01D
:103C500000BF20491C48006806F078FD07D21C49C7
:103C60001948006806F0F4FB1749086000E000BF3F
:103C700013494869184906F09DFD04461748016834
:103C8000204606F0E5FB15490860BDE8FE8F000000
:103C900050020020480200204C020020A001002019
:103CA000F168E388B5F8F43EA80100200C0200207A
:103CB000D9CEF753E3A54C4034020020380200204F
:103CC000584B0020E17A843F3C020020000034433E
:103CD0000000B443000034C30AD7233C4402002050
:103CE0000146002291F82100022808D004208863B0
:103CF00000BF002081F8200000BF01207047086845
:103D0000006820F00E000B6818600868006820F05A
:103D100001000B68186091F8403001209840CB6B8F
:103D20005860012081F8210000BF002081F82000A8
:103D300000BF1046E2E7000070B50446002594F885
:103D40002100022803D00420A063012548E0206858
:103D5000006820F00E00216808602068006820F0EC
:103D60000100216808601F492068884201D10120B4
:103D700026E01C4914312068884201D110201FE040
:103D8000184928312068884201D1801518E015496A
:103D90003C312068884201D1801411E01149503132
:103DA0002068884202D14FF4803009E00D49643127
:103DB0002068884202D14FF4801001E04FF08070FB
:103DC000084908394860012084F8210000BF00201C
:103DD00084F8200000BF606B10B12046616B8847FB
:103DE000284670BD0800024070B50446E06B0568C7
:103DF0002068066894F84010042088402840002875
:103E000046D006F00400002842D02068006800F088
:103E1000200028B92068006820F0040021680860AC
:103E200057492068884201D1042027E054491431C1
:103E30002068884201D1402020E051492831206883
:103E4000884201D1001519E04D493C312068884273
:103E500002D14FF4804011E0494950312068884236
:103E600002D14FF4802009E045496431206888423E
:103E700002D14FF4800001E04FF0806040490839E2
:103E80004860E06A00287AD02046E16A884776E0F8
:103E900094F84010022088402840A0B306F00200A9
:103EA00088B32068006800F0200040B920680068EE
:103EB00020F00A0021680860012084F821003049C0
:103EC0002068884201D1022028E02D491431206861
:103ED000884201D1202021E02949283120688842E8
:103EE00001D140151AE026493C312068884202D1B0
:103EF0004FF4005012E0224950312068884203D12B
:103F00004FF400300AE017E01D4964312068884210
:103F100002D14FF4001001E04FF000701849083949
:103F2000486000BF002084F8200000BFA06A30B3C2
:103F30002046A16A884722E094F840100820884073
:103F40002840E0B106F00800C8B12068006820F001
:103F50000E002168086094F8401001208840E16B51
:103F600048600120A06384F8210000BF002084F88D
:103F7000200000BF206B10B12046216B884770BD28
:103F8000080002400146002209B901207047164B83
:103F90000868C01A1423B0FBF3F0800008641248CC
:103FA0000838C863022081F821000868026843F6D7
:103FB000F0708243D1E901031843CB6818430B69C1
:103FC00018434B6918438B691843CB691843024364
:103FD0000868026000208863012081F82100002029
:103FE00081F8200000BFD1E7080002402DE9F04130
:103FF00004460D4616461F464FF0000800BF94F8D1
:104000002000012802D10220BDE8F081012084F8BF
:10401000200000BF94F8210001282CD1022084F850
:1040200021000020A0632068006820F001002168C2
:1040300008603B46324629462046FEF771FCE06A9E
:1040400030B12068006840F00E00216808600BE085
:104050002068006820F0040021680860206800687B
:1040600040F00A00216808602068006840F0010004
:104070002168086006E000BF002084F8200000BF2F
:104080004FF002084046BFE770B5044600F0AEF9B5
:1040900006462546681C10B104480078054400BF58
:1040A00000F0A4F9801BA842FAD370BD08000020DC
:1040B0002DE9F8470346002294466EE14FF00108CF
:1040C00008FA02F4D1F8008008EA0400A0427DD189
:1040D000DFF8DCA2D1F80480A8EB0A09D0453AD079
:1040E00014DCB8F1030F50D009DCB8F1000F31D067
:1040F000B8F1010F1CD0B8F1020F49D120E0B8F19E
:10410000110F18D0B8F1120F42D11EE0B9F5881F77
:1041100025D006DCB9F5803F20D0B9F5801F37D116
:104120001AE0B9F5001F18D0B9F5041F30D117E017
:10413000D1F80CC02DE0D1F80C8008F1040C28E077
:10414000D1F80C8008F1080C23E0D1F80C8008F1BC
:104150000C0C1EE000BF00BF00BF00BF00BF00BFCF
:10416000D1F80880B8F1000F02D14FF0040C0BE039
:10417000D1F80880B8F1010F03D14FF0080C1C6191
:1041800002E04FF0080C5C6103E04FF0000C00E02F
:1041900000BF00BFFF2801D8984601E003F10408E2
:1041A0004646FF2802D84FEA820803E0A2F1080839
:1041B0004FEA88084746D6F800804FF00F0909FA01
:1041C00007F928EA09080CFA07F900E088E048EA4C
:1041D0000908C6F80080D1F8048008F08058B8F1CA
:1041E000805F7DD100BFDFF8CC81D8F8188048F01F
:1041F0000108DFF8C091C9F81880C846D8F81880BF
:1042000008F00108CDF8008000BF00BF4FEAB938C0
:104210004FEA920958F829504FEA82784FEA187904
:104220004FF00F0808FA09F825EA0805DFF8888139
:10423000434502D14FF0000816E0DFF88081434586
:1042400002D14FF001080FE0DFF87481434502D13D
:104250004FF0020808E0DFF86C81434502D14FF0CF
:10426000030801E04FF004084FEA82794FEA197918
:1042700008FA09F848EA0505DFF84C814FEA920987
:1042800048F82950D1F8048008F48018B8F5801F48
:104290000AD1DFF83881D8F8008048EA0008DFF852
:1042A0002C91C9F8008009E0DFF82081D8F800805F
:1042B00028EA0008DFF81491C9F80080D1F80480DA
:1042C00008F40018B8F5001F10D1DFF8008108F1DC
:1042D0000408D8F8008048EA0008DFF8F09000E011
:1042E0005AE009F10409C9F800800DE0DFF8DC802C
:1042F00008F10408D8F8008028EA0008DFF8CC901C
:1043000009F10409C9F80080D1F8048008F40038E4
:10431000B8F5003F0ED1DFF8B480A8F10408D8F852
:10432000008048EA0008DFF8A490A9F10409C9F860
:1043300000800DE0DFF89480A8F10408D8F8008030
:1043400028EA0008DFF88490A9F10409C9F8008080
:10435000D1F8048008F48038B8F5803F0ED1DFF83A
:104360006C80A8F10808D8F8008048EA0008DFF857
:104370005C90A9F10809C9F800800DE0DFF84C80D5
:10438000A8F10808D8F8008028EA0008DFF83C9077
:10439000A9F10809C9F80080521CD1F8008028FA58
:1043A00002F8B8F1000F7FF489AEBDE8F88700008D
:1043B000000011100010024000080140000C0140F4
:1043C00000100140001401400800014008040140B1
:1043D000024693680B400BB1012000E000207047BB
:1043E0000AB1016101E00B040361704701480068F4
:1043F0007047000000000020034800680349097866
:1044000008440149086070470000002008000020AF
:1044100010B50848006840F0100006490860032005
:1044200000F0E2F8012000F007F800F05FF800204B
:1044300010BD0000002002402DE9F04188B0044684
:104440000027B846002600BF2348C06940F002009C
:104450002149C8610846C06900F00200019000BF10
:1044600000BF02A903A800F099F9069F1FB900F048
:10447000BDF9054602E000F0B9F945001748B5FB63
:10448000F0F0A0F1010816481649086040F2E73143
:104490001448C160C0F8048000210161816081611D
:1044A00000F0ACFC064696B90E4800F0F3FC064658
:1044B0006EB91D2000F04AF8102C07D200222146C8
:1044C0001D2000F053F80848046000E00126304643
:1044D00008B0BDE8F08100000010024040420F002B
:1044E00000040040284A00200400002008B500BF56
:1044F0001448806940F001001249886108468069CB
:1045000000F00100009000BF00BF00BF0846C06976
:1045100040F08050C8610846C06900F080500090AB
:1045200000BF00BF00220F21901E00F01FF800BF47
:104530000549486820F0E06040F00070486000BF26
:1045400008BD00000010024000000140014608467E
:10455000002809DB00F01F0301229A4043099B0059
:1045600003F1E023C3F8002100BF70472DE9F05F9D
:1045700080460D461646002703F014F907463946D3
:104580002A46334601F00700C0F1070ABAF1040FCA
:1045900002D94FF0040A01E0C0F1070AD14600F148
:1045A000040ABAF1070F02D24FF0000A01E0A0F1AD
:1045B000030AD4464FF0010A0AFA09FAAAF1010ADD
:1045C0000AEA020A0AFA0CFA4FF0010B0BFA0CFB8A
:1045D000ABF1010B0BEA030B4AEA0B042146404600
:1045E00003F0E8F8BDE8F09F00BF00F00702064BBB
:1045F00019684FF6FF031940044B0B4343EA0221AD
:10460000014B196000BF70470CED00E00000FA0597
:1046100070B504460D460CB9012070BD5A480068BB
:1046200000F00700A8420ED25748006820F00700AB
:104630002843554908600846006800F00700A84272
:1046400001D00120E9E7207800F0020002281DD106
:10465000207800F00400042805D14C48406840F45C
:10466000E0604A494860207800F00800082805D139
:104670004648406840F460504449486043484068B8
:1046800020F0F000A168084340494860207800F01D
:10469000010078B36068012806D13C48006800F446
:1046A000003090B90120B8E76068022806D1374889
:1046B000006800F0007040B90120AEE733480068A0
:1046C00000F0020008B90120A7E73048406820F058
:1046D0000300616808432D494860FFF787FE0646DE
:1046E00009E0FFF783FE801B41F28831884202D93E
:1046F000032092E707E02548406800F00C0061685D
:10470000B0EB810FEDD12048006800F00700A8420F
:104710000ED91D48006820F0070028431A49086098
:104720000846006800F00700A84201D0012074E7A5
:10473000207800F00400042807D11448406820F4D1
:10474000E060E168084311494860207800F0080003
:10475000082808D10D48406820F46050216940EADB
:10476000C1000A49486000F061F808494968C1F38E
:104770000311074A515CC8400649086006480068B2
:10478000FFF75AFE002048E70020024000100240D8
:1047900082AD00080C000020040000200F220260FF
:1047A0000D4A526802F0030242600B4A526802F05E
:1047B000F0028260084A526802F4E062C260064A6F
:1047C000526802F46052D2080261044A126802F090
:1047D00007020A60704700000010024000200240FB
:1047E00001480068704700000C00002000B5FFF78A
:1047F000F7FF04494968C1F30221034A515CC840EC
:1048000000BD00000010024092AD000800B5FFF7A7
:10481000E7FF04494968C1F3C221034A515CC8401B
:1048200000BD00000010024092AD000870B50021EC
:104830000022002400230020134D696801F00C05BC
:10484000F5B1042D02D0082D19D101E00F4819E06F
:104850000F4DC1F38346AB5D01F4803555B10A4D70
:104860006D68C5F340450B4E725D084D5D43B5FB69
:10487000F2F402E0084D03FB05F4204602E000BF1D
:10488000024800BF00BF70BD0010024000127A0055
:1048900070AD000880AD000800093D00F8B5044681
:1048A0000CB90120F8BD207800F00100002878D074
:1048B000F848406800F00C0004280CD0F548406827
:1048C00000F00C00082811D1F248406800F4803054
:1048D000B0F5803F0AD1EF48006800F400300028AE
:1048E0005FD0606800285CD10120DBE700BF606812
:1048F000B0F5803F06D1E748006840F48030E549D4
:10490000086028E0606858B9E248006820F4803008
:10491000E04908600846006820F4802008601AE03A
:104920006068B0F5A02F0BD1DA48006840F4802011
:10493000D84908600846006840F4803008600AE002
:10494000D448006820F48030D249086008460068E6
:1049500020F48020086000BF606888B1FFF746FD42
:10496000054606E0FFF742FD401B642801D90320FD
:1049700098E7C848006800F400300028F2D010E042
:10498000FFF734FD054606E0FFF730FD401B6428C5
:1049900001D9032086E7BF48006800F400300028F2
:1049A000F2D1207800F00200022857D1B9484068BF
:1049B00000F00C0050B1B748406800F00C00082827
:1049C00018D1B448406800F4803098B9B148006804
:1049D00000F0020020B12069012801D0012061E728
:1049E000AC48006820F0F800616940EAC100A949BC
:1049F000086033E02069E8B10120A7490860FFF7AB
:104A0000F5FC054606E0FFF7F1FC401B022801D942
:104A1000032047E79F48006800F002000028F2D01A
:104A20009C48006820F0F800616940EAC10099499B
:104A3000086013E0002098490860FFF7D7FC05469E
:104A400006E0FFF7D3FC401B022801D9032029E729
:104A50009048006800F002000028F2D1207800F0B1
:104A6000080008282DD1A069B8B101208B49086041
:104A7000FFF7BCFC054606E0FFF7B8FC401B022828
:104A800001D903200EE78348406A00F002000028A5
:104A9000F2D0012001F0DEFF13E000207F49086022
:104AA000FFF7A4FC054606E0FFF7A0FC401B022828
:104AB00001D90320F6E67748406A00F0020000289A
:104AC000F2D1207800F00400042873D10027714847
:104AD000C06900F0805070B900BF6E48C06940F0F6
:104AE00080506C49C8610846C06900F08050009051
:104AF00000BF00BF01276A48006800F48070B0B9A9
:104B00006748006840F4807065490860FFF76EFCF4
:104B1000054606E0FFF76AFC401B642801D9032024
:104B2000C0E65F48006800F480700028F2D000BF43
:104B3000E068012806D15748006A40F00100554955
:104B4000086227E0E06858B95248006A20F0010086
:104B5000504908620846006A20F00400086219E023
:104B6000E06805280BD14B48006A40F00400494931
:104B700008620846006A40F0010008620AE0454801
:104B8000006A20F00100434908620846006A20F0EC
:104B90000400086200BFE068A0B1FFF727FC0546EB
:104BA00009E0FFF723FC401B41F28831884202D91B
:104BB000032077E622E03748006A00F00200002870
:104BC000EFD012E0FFF712FC054608E0FFF70EFCFD
:104BD000401B41F28831884201D9032062E62D480A
:104BE000006A00F002000028F0D1012F05D1294809
:104BF000C06920F080502749C86100BFE069C8B390
:104C00002448406800F00C00082860D0E0690228C1
:104C100048D1002020490866FFF7E8FB054606E07A
:104C2000FFF7E4FB401B022801D903203AE61948AC
:104C3000006800F000700028F2D1206AB0F5803FD3
:104C400007D11448406820F40030A1680843114996
:104C50004860D4E9080108430E49496821F47411F9
:104C600008430C49486001200B490866FFF7BEFB6A
:104C7000054607E03DE0FFF7B9FB401B022801D9DC
:104C800003200FE60348006800F000700028F2D00F
:104C90002FE0000000100240000042428004424227
:104CA00000700040002014490866FFF79FFB05468E
:104CB00006E0FFF79BFB401B022801D90320F1E52A
:104CC0000E48006800F000700028F2D111E0E069A1
:104CD000012800D1E6E50948466806F48031206ADB
:104CE000814204D106F47011606A814201D0012032
:104CF000D8E50020D6E50000000042420010024046
:104D00007047704710B50346002200BF93F83C007F
:104D1000012801D1022010BD012083F83C0000BF12
:104D200022F0FF00CC6840EA040222F440708C6854
:104D300040EA040222F480604C6840EA040222F453
:104D400000600C6840EA040222F480500C6940EADA
:104D5000040222F400504C6940EA040222F480402C
:104D6000CC6940EA04021868426400BF002083F85E
:104D70003C0000BF00BFCEE730B502460B4600BF87
:104D800092F83C00012801D1022030BD012082F8B8
:104D90003C0000BF022082F83D00106844681068A3
:104DA000816824F070041868044310684460104D52
:104DB0001068A8420BD01068B0F1804F07D00D4D9D
:104DC0001068A84203D00C4D1068A84205D121F00C
:104DD00080015868014310688160012082F83D001D
:104DE00000BF002082F83C0000BF00BFCDE70000FC
:104DF000002C0140000400400008004010B50446AB
:104E00000CB9012010BD94F83D0028B9002084F8A9
:104E10003C00204600F026F8022084F83D00211DC9
:104E2000206801F0F7FE012084F8460000BF84F8F6
:104E30003E0001213F2001554020015541200155F0
:104E400000BF00BF012084F84200432001554420E8
:104E500001554520015500BF012084F83D00002088
:104E6000D0E7000008B5094A016891420DD100BFA2
:104E70000749896941F40061054A916111468969D0
:104E800001F40061009100BF00BF08BD002C01408B
:104E900000100240014691F83D00012801D0012098
:104EA0007047022081F83D000868C06840F00100AA
:104EB0000B68D860124B086898420BD00868B0F1B4
:104EC000804F07D00F4B0868984203D00E4B0868FC
:104ED00098420CD10868806800F00702062A0CD0BE
:104EE0000868006840F001000B68186005E0086879
:104EF000006840F001000B6818600020D0E7000057
:104F0000002C014000040040000800402DE9F04161
:104F100004460D46002700BF94F83C00012802D14A
:104F20000220BDE8F081012084F83C0000BF02208F
:104F300084F83D002068866826F0770626F47F46D0
:104F4000206886602868502833D00CDC202850D098
:104F500004DC00284BD0102851D149E0302849D03A
:104F600040284CD139E060282DD0702807D0B0F50A
:104F7000805F03D0B0F5005F41D10DE041E0D5E99D
:104F800002136A68206801F098FE2068866846F07F
:104F900077062068866034E0D5E902136A682068E5
:104FA00001F08BFE2068806840F4804021688860B2
:104FB00027E0EA686968206801F050FF5021206806
:104FC00001F086FE1DE0EA686968206801F059FF7B
:104FD0006021206801F07CFE13E0EA6869682068BF
:104FE00001F03CFF4021206801F072FE09E000BFA3
:104FF00000BF00BF2968206801F06AFE01E00127B8
:1050000000BF00BF012084F83D0000BF002084F8ED
:105010003C0000BF384684E72DE9F04104460D46C8
:1050200014B90120BDE8F08194F83D0028B90020B2
:1050300084F83C00204600F051F8022084F83D003E
:105040002068806844F20701884321688860211D38
:10505000206801F0DFFD2068D0F8088020688669AC
:105060002068076A286840EA080840F2033086434F
:10507000A969A86840EA0120064340F60C4086432F
:105080004FF2F0008643E969E86840EA01200643F0
:1050900028690001296A40EA0130064327F0220707
:1050A0006969686840EA011007432068C0F8088011
:1050B0002068866120680762012084F8460084F831
:1050C0003E0001213F200155012084F84200432089
:1050D0000155012084F83D000020A3E710B586B0FB
:1050E0000446002002900390049005902068B0F1DF
:1050F000804F24D100BF2748C06940F001002549F6
:10510000C8610846C06900F00100019000BF00BFFF
:1051100000BF0846806940F0040088610846806945
:1051200000F00400019000BF00BF032002900020A7
:105130000390049002A91848FEF7BAFF27E0174928
:105140002068884223D100BF1248C06940F00400A3
:105150001049C8610846C06900F00400019000BF12
:1051600000BF00BF0846806940F00800886108461B
:10517000806900F00800019000BF00BFC0200290CD
:1051800000200390049002A90548FEF791FF06B0A5
:1051900010BD00000010024000080140000800405F
:1051A000000C01402DE9F04304460D4694F83E60A2
:1051B0003F20075D94F84280432010F804906DB9B9
:1051C000012E02D1B8F1010F02D00120BDE8F08319
:1051D000022084F83E0084F8420025E0042D0CD122
:1051E000012F02D1B9F1010F01D00120EEE7022118
:1051F0003F2001554320015516E0012E07D1012F14
:1052000005D1B8F1010F02D1B9F1010F01D0012090
:10521000DCE7022084F83E0002213F2001550220F5
:1052200084F842004320015515B1042D0CD105E04E
:1052300001220021206801F02FFD10E0012204214D
:10524000206801F029FD0AE001220021206801F018
:1052500023FD01220421206801F01EFD00BF00BFD4
:105260002068006840F00100216808600020ADE778
:10527000704770B504462068C5682068066906F066
:105280000200022819D105F00200022815D1401FA2
:1052900021680861012020772068806900F0030000
:1052A00018B12046FFF7E4FF05E0204600F0C4F8FF
:1052B000204600F078F90020207706F0040004284A
:1052C00019D105F00400042815D1C04321680861F4
:1052D000022020772068806900F4407018B12046D1
:1052E000FFF7C6FF05E0204600F0A6F8204600F0D4
:1052F0005AF90020207706F00800082819D105F097
:105300000800082815D1C0432168086104202077CF
:105310002068C06900F0030018B12046FFF7A8FF1D
:1053200005E0204600F088F8204600F03CF9002017
:10533000207706F01000102819D105F01000102871
:1053400015D1C04321680861082020772068C06912
:1053500000F4407018B12046FFF78AFF05E02046B0
:1053600000F06AF8204600F01EF90020207706F0D1
:10537000010048B105F0010030B16FF00100216873
:105380000861204600F07AF906F08000802809D1F3
:1053900005F08000802805D1C043216808612046BF
:1053A000FFF7AEFC06F04000402809D105F04000B0
:1053B000402805D1C04321680861204600F06AF901
:1053C00006F02000202809D105F02000202805D172
:1053D000C043216808612046FFF793FC70BD0000C0
:1053E00010B586B00446002002900390049005900A
:1053F0000E492068884217D100BF0D48806940F0EF
:1054000004000B4988610846806900F0040001909F
:1054100000BF00BF4FF4106002900220039005907F
:1054200002A90448FEF744FE06B010BD002C01405E
:10543000001002400008014070472DE9F041044689
:105440000D461646002700BF94F83C00012802D103
:105450000220BDE8F081012084F83C0000BF36B195
:10546000042E1BD0082E31D00C2E5ED145E02946EB
:10547000206801F037FC2068806940F0080021684E
:1054800088612068806920F00400216888612068B4
:105490008069296908432168886148E029462068B5
:1054A00001F050FC2068806940F400602168886148
:1054B0002068806920F480602168886120688069A4
:1054C000296940EA01202168886130E02946206886
:1054D00001F06CFC2068C06940F008002168C861D8
:1054E0002068C06920F004002168C8612068C06994
:1054F000296908432168C86119E02946206801F03C
:1055000089FC2068C06940F400602168C861206897
:10551000C06920F480602168C8612068C069296979
:1055200040EA01202168C86101E0012700BF00BFF7
:1055300000BF002084F83C0000BF384689E710B562
:1055400004460CB9012010BD94F83D0028B9002094
:1055500084F83C00204600F025F8022084F83D0045
:10556000211D206801F056FB012084F8460000BF91
:1055700084F83E0001213F20015540200155412083
:10558000015500BF00BF012084F8420043200155AF
:10559000442001554520015500BF012084F83D00FD
:1055A0000020D0E77047704770B504460D4615B926
:1055B00094F83E000BE0042D02D13F20005D06E090
:1055C000082D02D14020005D01E04120005D01284E
:1055D00001D0012070BD1DB9022084F83E000EE00C
:1055E000042D03D102213F20015508E0082D03D1ED
:1055F00002214020015502E00221412001550122F3
:105600002946206801F048FB19492068884201D1E9
:10561000012000E0002028B12068406C40F40040E8
:10562000216848641249206888420BD02068B0F194
:10563000804F07D00F492068884203D00E49206868
:1056400088420CD12068806800F00706062E0CD036
:105650002068006840F001002168086005E02068CB
:10566000006840F00100216808600020B2E70000F7
:10567000002C0140000400400008004010B5044622
:1056800003492068884201D1FEF7B6FE10BD000034
:10569000000400407047704710B504461A4920685E
:1056A000884230D11948C06D401E19490844174935
:1056B000096D48601548006D0830144908650846B2
:1056C000006D896D884202D11048014608650F4877
:1056D000C06DC0F16400142807D80D480B49096D4E
:1056E000086000200949C86506E00848C06D0849FF
:1056F00008440649096D08600448006D14220168D9
:10570000044800F0C5FA10BD00480040F84A0020E7
:10571000944A00209C49002010B5044600BF00BFF9
:1057200021680C3151E8001F21F4907021680C3180
:1057300041E80002002AF3D100BF00BF00BF21688A
:10574000143151E8001F21F001002168143141E8B3
:105750000002002AF3D100BF206B01280ED100BF48
:1057600000BF21680C3151E8001F21F010002168B2
:105770000C3141E80002002AF3D100BF20684069E3
:1057800000F0400030B300BF00BF2168143151E881
:10579000001F21F040002168143141E80002002A76
:1057A000F3D100BFE06B50B11048E16B4863E06B90
:1057B000FEF7C2FAC0B1E06B416B884714E00020ED
:1057C000E085202084F84200002020632046FFF777
:1057D00063FF09E00020E085202084F842000020DB
:1057E00020632046FFF758FF002010BD917100088C
:1057F000704700002DE9F84F0446206805682068CE
:10580000C668206847694FF00009CA4605F00F09CD
:10581000B9F1000F0AD105F0200038B106F02000E0
:1058200020B1204601F01BFDBDE8F88FB9F1000F53
:105830007BD007F0010018B906F49070002874D0EE
:1058400005F0010030B106F4807018B1606C40F0D2
:105850000100606405F0040030B107F0010018B1E8
:10586000606C40F00200606405F0020030B107F0A7
:10587000010018B1606C40F00400606405F008009D
:1058800048B106F0200010B907F0010018B1606CB3
:1058900040F008006064606C002845D005F02000EE
:1058A00028B106F0200010B1204601F0D8FC206895
:1058B0004069C0F3801A606C00F0080010B9BAF1BA
:1058C000000F2CD0204601F071FC2068406900F0E8
:1058D000400000B300BF00BF2168143151E8001F31
:1058E00021F040002168143141E80002002AF3D180
:1058F00000BFE06B50B17748E16B4863E06BFEF7A7
:105900001BFA88B1E06B416B88470DE02046FFF73A
:105910006FFF09E009E02046FFF76AFF04E0204638
:10592000FFF766FF002060647EE7206B012877D1D7
:1059300005F01000002873D006F010000028FAD0FF
:1059400000BF002000902068006800902068406838
:10595000009000BF00BF2068406900F040000028B0
:105960005FD0E06B006840681FFA80F8B8F1000F64
:1059700055D0A08D404552DDA4F82E80E06B8069A3
:10598000202843D000BF00BF21680C3151E8001F20
:1059900021F4807021680C3141E80002002AF3D123
:1059A00000BF00BF00BF2168143151E8001F21F083
:1059B00001002168143141E80002002AF3D100BF40
:1059C00000BF00BF2168143151E8001F21F04000E2
:1059D0002168143141E80002002AF3D100BF2020E1
:1059E00084F842000020206300BF00BF21680C3112
:1059F00051E8001F21F0100021680C3141E800023D
:105A0000002AF3D100BFE06BFEF76AF90220606361
:105A1000A08DE28D801A81B22046FFF73CFE03E79D
:105A200042E0A08DE18D401A1FFA80F8E08DD0B3DE
:105A3000B8F1000F37D000BF00BF21680C3151E82A
:105A4000001F21F4907021680C3141E80002002A07
:105A5000F3D100BF00BF00BF2168143151E8001F1F
:105A600021F001002168143141E80002002AF3D13D
:105A700000BF202084F842000020206300BF00BF48
:105A800021680C3151E8001F21F0100021680C3111
:105A900041E80002002AF3D100BF022060634146C2
:105AA0002046FFF7F8FDBFE605F0800030B106F0B4
:105AB000800018B1204601F033FDB5E605F0400046
:105AC00030B106F0400018B1204601F0A5FBABE66E
:105AD00000BFA9E65570000810B504460CB90120B6
